:100000000C9463000C948B000C948B000C94D70020
:100010000C94D7000C94D7000C948B000C948B009C
:100020000C948B000C948B000C948B000C948B0024
:100030000C948B000C948B000C948B000C948B0014
:100040000C9446060C948B000C9478090C94AA0925
:100050000C948B000C948B000C948B000C948B00F4
:100060000C948B000C948B0000000008000201002F
:100070000003040700000000000000000102040863
:100080001020408001020408102001020408102002
:10009000040404040404040402020202020203032E
:1000A00003030303000000002300260029000000D2
:1000B0000000250028002B0000000000240027007D
:1000C0002A00D100DA0911241FBECFEFD8E0DEBF2D
:1000D000CDBF12E0A0E0B1E0E4ECF5E102C0059094
:1000E0000D92A037B107D9F723E0A0E7B2E001C035
:1000F0001D92A536B207E1F710E0C6ECD0E004C0CF
:100100002297FE010E94DC0AC23CD107C9F70E9477
:100110001E0A0C94E00A0C94000026E040E052EC29
:1001200061E070E088EC92E00E94160980E792E0BE
:100130000E94510160E080E792E00C94BA0362E013
:1001400080E792E00E94F105BC0188EC92E00E94F9
:100150006B0A65E771E088EC92E00E946B0A2EE280
:1001600041E062E080E792E00E94BD04BC0188ECBF
:1001700092E00E946B0A62E771E088EC92E00E94D4
:100180006B0A62E080E792E00E944F04BC0188ECB9
:1001900092E00E94710A68EE73E080E090E00C94B7
:1001A000B30643E162E180E792E00C9486011F927E
:1001B0000F920FB60F9211242F933F934F935F939B
:1001C0006F937F938F939F93AF93BF93EF93FF931F
:1001D000E091BD02F091BE02309709F451C0868DC6
:1001E000A685B785958581FF04C08C91892329F464
:1001F00047C08C91892309F043C0A389B4899C919D
:100200008589809589238C93868997890197F1F751
:10021000208D318DA685B785758558E040E0C901F0
:100220000197F1F7842F90E095958795482F6C9171
:10023000672309F04068515091F7868D81FD409504
:1002400080917C0290E001968F73992720917B0228
:10025000281749F0A0917C02B0E0A358BD4F4C9301
:1002600080937C0203C0868D8160868F828D938D02
:100270000197F1F7A389B4898C919589892B8C9387
:10028000FF91EF91BF91AF919F918F917F916F916E
:100290005F914F913F912F910F900FBE0F901F9044
:1002A0001895FC0181818231F1F480818331D9F488
:1002B00081E0828761E082E10E94950761E083E14D
:1002C0000E9495078091B9008E7F8093B90080913C
:1002D000B9008D7F8093B9008CE08093B80085E0F1
:1002E0008093BC000895128661E080810C945C07C5
:1002F000FC018AED97E09683858381E08483838384
:1003000010821182128285E087830895FC01618347
:10031000408308950F931F93CF93DF931F92CDB720
:10032000DEB78C01262F61E0FC01818129830E94C8
:100330005C0761E0F80181810E94950761E0F801A6
:1003400080810E94950760E0F80181810E949507F5
:1003500060E0F80180810E949507298141E0F80161
:10036000608181810F90DF91CF911F910F910C944B
:10037000F407CF93DF93EC0161E089810E945C0771
:1003800060E089810E94950761E088810E9495075D
:1003900061E089810E94950760E08981DF91CF91BA
:1003A0000C945C07CF93DF93EC0161E089810E949C
:1003B0005C0760E088810E94950761E089810E9466
:1003C000950761E088810E94950760E088810E941E
:1003D000950760E08981DF91CF910C945C07CF9302
:1003E000DF93EC0161E089810E945C0760E0888115
:1003F0000E94950760E089810E94950761E08881ED
:100400000E94950760E088810E94950760E08981DD
:10041000DF91CF910C945C07CF93DF93EC0160E008
:1004200089810E945C0761E088810E94950789812B
:100430000E94CB070197D9F360E08881DF91CF91CB
:100440000C949507FF920F931F93CF93DF93EC01CA
:1004500060E089810E945C0707E010E0F12C61E018
:1004600088810E94950789810E94CB079927002ED9
:1004700001C0880F0A94EAF7F82A81E090E00E9410
:10048000ED0660E088810E9495070150110938F758
:100490008F2DDF91CF911F910F91FF9008950F93B2
:1004A0001F93CF93DF931F92CDB7DEB78C01262F1A
:1004B00061E0FC01818129830E945C07298141E080
:1004C000F801608181810F90DF91CF911F910F9191
:1004D0000C94F4070F931F93CF93DF93EC018A855D
:1004E000882309F44DC084EE8093BC008091BC0049
:1004F00087FFFCCF80ED8093BB0084EC8093BC0031
:100500008091BC0087FFFCCF1092BB0084EC8093ED
:10051000BC008091BC0087FFFCCF84EE8093BC00C0
:100520008091BC0087FFFCCF81ED8093BB0084EC01
:100530008093BC008091BC0087FFFCCF80E090E0FE
:1005400034EC3093BC002091BC0027FFFCCF2091FD
:10055000BB00FE01E80FF91F228301968730910549
:1005600081F784E88093BC008091BC0087FFFCCFBA
:1005700084E98093BC00DF91CF911F910F91089582
:1005800060EDCE010E948A01CE010E940C0260E063
:10059000CE010E944F02CE010E940C0261EDCE01FD
:1005A0000E948A01CE010E940C0200E010E0CE0100
:1005B0000E942202FE01E00FF11F8283CE0106306D
:1005C000110519F00E94EF0102C00E94D2010F5FD5
:1005D0001F4F0730110559F7CE01DF91CF911F91C1
:1005E0000F910C94B9011F93CF93DF93EC01162F59
:1005F0008A85882309F43FC084EE8093BC008091F3
:10060000BC0087FFFCCF80ED8093BB0084EC80931F
:10061000BC008091BC0087FFFCCF1093BB0084EC32
:100620008093BC008091BC0087FFFCCF84EE809358
:10063000BC008091BC0087FFFCCF81ED8093BB00A4
:1006400084EC8093BC008091BC0087FFFCCF84ECDD
:100650008093BC008091BC0087FFFCCF1091BB0051
:1006600084E88093BC008091BC0087FFFCCF84E9C4
:100670008093BC001FC060EDCE010E948A01CE01B4
:100680000E940C02612FCE010E944F02CE010E94F7
:100690000C0261EDCE010E948A01CE010E940C0283
:1006A000CE010E942202182FCE010E94D201CE015B
:1006B0000E94B901812FDF91CF911F910895EF9290
:1006C000FF921F93CF93DF931F92CDB7DEB77C01CC
:1006D000162FFC018285882369F184EE8093BC008B
:1006E0008091BC0087FFFCCF80ED8093BB0084EC41
:1006F0008093BC008091BC0087FFFCCF1093BB00AF
:1007000084EC8093BC008091BC0087FFFCCF4093B9
:10071000BB0084EC8093BC008091BC0087FFFCCFC1
:1007200084E98093BC000F90DF91CF911F91FF90DF
:10073000EF90089560EDC70149830E948A01C701C7
:100740000E940C02612FC7010E944F02C7010E9444
:100750000C024981642FC7010E944F02C7010E9409
:100760000C02C7010F90DF91CF911F91FF90EF9086
:100770000C94B9011F93CF93DF93EC01162F60E027
:100780000E94F302482F10FB47F960E0CE01DF9191
:10079000CF911F910C945F03962F96959695969501
:1007A0009E70292F220F220F290F862F8F70820F04
:1007B0000895962F9F7067FF09C065FB662760F953
:1007C000892F2CE0629F800D112408956073669537
:1007D00066956695862F880F880F860F890F089576
:1007E0000F931F93CF93DF93CDB7DEB760970FB60C
:1007F000F894DEBF0FBECDBF8C01CE0109960E94DA
:100800007801C8010E946A02F8016281C8010E9451
:10081000CC038B87F8016381C8010E94CC038A87CF
:10082000F8016481C8010E94D9038987F801858194
:10083000888B6681C8010E94CC038C87F801678190
:10084000C8010E94CC038D87F8018085982F92956E
:100850009F708F70FAE09F9F800D112490E080536D
:10086000984F9F878E8788E0FE013996DE011196AA
:1008700001900D928A95E1F729813A814B815C8143
:100880006D817E818F81988560960FB6F894DEBF6A
:100890000FBECDBFDF91CF911F910F910895FF92B1
:1008A0000F931F93CF93DF93CDB7DEB728970FB683
:1008B000F894DEBF0FBECDBF8C01F62ECE0101969F
:1008C0000E947801C8010E94F0033A834B832A30CA
:1008D00010F480E305C0822F6AE00E94840A805DE4
:1008E000809311013AE0822F632F0E94840A905D69
:1008F000909312018AE3809313012A812A3010F425
:1009000080E305C0822F632F0E94840A805D80935C
:1009100014013AE0822F632F0E94840A905D909325
:1009200015018AE38093160181E0F81203C010924A
:10093000160115C02B812A3010F480E305C0822FE8
:10094000632F0E94840A805D80931701822F6AE0E2
:100950000E94840A905D909318011092190181E120
:1009600091E028960FB6F894DEBF0FBECDBFDF91A1
:10097000CF911F910F91FF900895DF92EF92FF9218
:100980000F931F93CF93DF93CDB7DEB728970FB6A2
:10099000F894DEBF0FBECDBF8C01E62ED42EF22E12
:1009A000CE0101960E947801C8010E94F003262F13
:1009B0005C836D837E838F8382E0D816F1F083E0C1
:1009C000D81609F46FC081E0D812FBC05A3010F479
:1009D00080E305C0852F6AE00E94840A805D8093D1
:1009E00006013AE0852F632F0E94840A905D909360
:1009F0000701F09208012D816BC0EE81FF8181E03B
:100A0000E81609F4C0C0CF0168EE73E00E94A40AA2
:100A1000605D6093060104E610E0B8010E94A40A3C
:100A2000605D60930701CF01B8010E94A40A0AE04B
:100A300010E0B8010E94A40A605D60930801CF0134
:100A4000B8010E94A40A805D80930901F0920A0116
:100A5000E2E0F0E02D81EA5FFE4F2A3010F480E3FF
:100A600005C0822F6AE00E94840A805D83833AE099
:100A7000822F632F0E94840A905D9483F5822C81DB
:100A80002A3010F480E305C0822F632F0E94840A6D
:100A9000805D8683822F6AE00E94840A905D97833E
:100AA00010868FC06A3010F480E305C0862F6AE09C
:100AB0000E94840A805D809306013AE0822F632FB2
:100AC0000E94840A905D90930701F09208012C81A6
:100AD0002A3010F480E305C0822F632F0E94840A1D
:100AE000805D80930901822F6AE00E94840A905DF4
:100AF00090930A01F0920B012E813F8181E0E81270
:100B00001CC0205D37402A30310524F480E38093F7
:100B10000C0108C0C9016AE070E00E94A40A605D8F
:100B200060930C01C9016AE070E00E94A40A805D34
:100B300080930D0110920E0144C0C90168EE73E06C
:100B40000E94A40A605D60930C01E4E6F0E0BF013E
:100B50000E94A40A605D60930D01C901BF010E945B
:100B6000A40AEAE0F0E0BF010E94A40A605D60937D
:100B70000E01C901BF010E94A40A805D80930F018C
:100B8000109210011EC0E05DF740EA30F10524F438
:100B900080E38093060108C0CF016AE070E00E9404
:100BA000A40A605D60930601CF016AE070E00E94D4
:100BB000A40A805D80930701F0920801E0E0F0E074
:100BC00049CF86E091E028960FB6F894DEBF0FBEBD
:100BD000CDBFDF91CF911F910F91FF90EF90DF90EC
:100BE0000895FF920F931F93CF93DF93CDB7DEB796
:100BF000A4970FB6F894DEBF0FBECDBF8C01F62EC2
:100C00008EE0E6E2F1E0DE011F9601900D928A95FA
:100C1000E1F78EE0E4E3F1E0DE01119601900D9240
:100C20008A95E1F7CE014D960E947801C8010E9495
:100C3000F0032D8F3E8F4F8F58A369A37AA38BA308
:100C40009CA3E92FF0E081E03197EE0FFF1FF8122F
:100C500009C081E090E08C0F9D1FE80FF91F808193
:100C6000918108C081E090E08C0F9D1FE80FF91F73
:100C700086859785A4960FB6F894DEBF0FBECDBFCC
:100C8000DF91CF911F910F91FF9008951F920F92C6
:100C90000FB60F9211242F933F938F939F93AF938F
:100CA000BF938091C0029091C102A091C202B09105
:100CB000C3023091BF0223E0230F2D3720F40196A9
:100CC000A11DB11D05C026E8230F0296A11DB11D6F
:100CD0002093BF028093C0029093C102A093C202EE
:100CE000B093C3028091C4029091C502A091C60244
:100CF000B091C7020196A11DB11D8093C4029093CB
:100D0000C502A093C602B093C702BF91AF919F9155
:100D10008F913F912F910F900FBE0F901F901895BC
:100D20003FB7F8948091C4029091C502A091C60289
:100D3000B091C70226B5A89B05C02F3F19F00196B8
:100D4000A11DB11D3FBF6627782F892F9A2F620FF3
:100D5000711D811D911D42E0660F771F881F991F2D
:100D60004A95D1F708958F929F92AF92BF92CF92FA
:100D7000DF92EF92FF926B017C010E9490064B0183
:100D80005C01C114D104E104F104F1F00E94830A72
:100D90000E949006681979098A099B09683E734088
:100DA0008105910570F321E0C21AD108E108F1082C
:100DB00088EE880E83E0981EA11CB11CC114D104DA
:100DC000E104F10429F7DDCFFF90EF90DF90CF90A1
:100DD000BF90AF909F908F9008958230910538F02A
:100DE000880F991F880F991F05970197F1F70895AC
:100DF000789484B5826084BD84B5816084BD85B5F6
:100E0000826085BD85B5816085BDEEE6F0E08081BC
:100E100081608083E1E8F0E01082808182608083DD
:100E2000808181608083E0E8F0E080818160808360
:100E3000E1EBF0E0808184608083E0EBF0E0808192
:100E400081608083EAE7F0E0808184608083808134
:100E500082608083808181608083808180688083DC
:100E60001092C1000895833081F028F4813099F008
:100E70008230A1F008958730A9F08830B9F084302D
:100E8000D1F4809180008F7D03C0809180008F77A6
:100E900080938000089584B58F7702C084B58F7DDC
:100EA00084BD08958091B0008F7703C08091B00019
:100EB0008F7D8093B0000895CF93DF9390E0FC0185
:100EC000E458FF4F2491FC01E057FF4F84918823A1
:100ED00049F190E0880F991FFC01E854FF4FA5915C
:100EE000B49182559F4FFC01C591D4919FB7611178
:100EF00008C0F8948C91209582238C93888182235A
:100F00000AC0623051F4F8948C91322F30958323CB
:100F10008C938881822B888304C0F8948C91822BD7
:100F20008C939FBFDF91CF9108950F931F93CF9321
:100F3000DF931F92CDB7DEB7282F30E0F901E859D3
:100F4000FF4F8491F901E458FF4F1491F901E057E4
:100F5000FF4F04910023C9F0882321F069830E9488
:100F600033076981E02FF0E0EE0FFF1FE255FF4FDE
:100F7000A591B4919FB7F8948C91611103C010951D
:100F8000812301C0812B8C939FBF0F90DF91CF9164
:100F90001F910F910895CF93DF93282F30E0F9012F
:100FA000E859FF4F8491F901E458FF4FD491F901BA
:100FB000E057FF4FC491CC2391F081110E94330779
:100FC000EC2FF0E0EE0FFF1FEC55FF4FA591B49111
:100FD0002C912D2381E090E021F480E002C080E09C
:100FE00090E0DF91CF910895BF92CF92DF92EF9280
:100FF000FF920F931F93CF93DF93C82ED62EB42E5C
:10100000C7E0D0E0022F10E087E0E82EF12CB1100D
:101010000AC0F701EC1BFD0BB80102C0759567957E
:10102000EA95E2F707C0B8010C2E02C075956795E6
:101030000A94E2F7617077278C2D0E94950761E092
:101040008D2D0E94950760E08D2D0E9495072197B8
:10105000F0F6DF91CF911F910F91FF90EF90DF900D
:10106000CF90BF900895FC01818D228D90E0805C2F
:101070009F4F821B91098F7399270895FC01918DD1
:10108000828D981731F0828DE80FF11D858D90E0EB
:1010900008958FEF9FEF0895FC01918D828D981731
:1010A00061F0828DDF01A80FB11D5D968C91928D4C
:1010B0009F5F9F73928F90E008958FEF9FEF089549
:1010C00080ED99E0892B49F080E090E0892B29F0B0
:1010D0000E94D00981110C9400000895FC01848DB8
:1010E000DF01A80FB11DA35ABF4F2C91848D90E052
:1010F00001968F739927848FA689B7892C93A0892D
:10110000B1898C9180648C93938D848D981306C0E3
:101110000288F389E02D80818F7D80830895CF93AD
:10112000DF93EC01888D8823C9F0EA89FB898081EF
:1011300085FD05C0A889B9898C9186FD0FC00FB6C1
:1011400007FCF5CF808185FFF2CFA889B9898C9102
:1011500085FFEDCFCE010E946E08E7CFDF91CF91E2
:101160000895CF92DF92FF920F931F93CF93DF9357
:101170001F92CDB7DEB76C0181E0D60158968C93F3
:1011800058975B969C915B975C968C915C979813B3
:1011900007C05096ED91FC915197808185FD2EC03E
:1011A000F601038D10E00F5F1F4F0F731127F02E14
:1011B000F601848DF81211C00FB607FCF9CFD601E5
:1011C0005096ED91FC915197808185FFF1CFC6013A
:1011D00069830E946E086981EBCF838DE80FF11D52
:1011E000E35AFF4F6083D6015B960C935B97529650
:1011F000ED91FC915397808180620CC0D601569688
:10120000ED91FC91579760835096ED91FC91519729
:1012100080818064808381E090E00F90DF91CF91A6
:101220001F910F91FF90DF90CF900895BF92CF92C2
:10123000DF92EF92FF92CF93DF93EC016A017B0183
:10124000B22EE889F98982E08083411581EE580742
:1012500061057105A1F060E079E08DE390E0A70100
:1012600096010E94B80A2150310941095109569549
:10127000479537952795211580E1380798F0E8893B
:10128000F989108260E874E88EE190E0A701960188
:101290000E94B80A215031094109510956954795D4
:1012A00037952795EC85FD853083EE85FF85208376
:1012B000188EEC89FD89B082EA89FB898081806182
:1012C0008083EA89FB89808188608083EA89FB8941
:1012D000808180688083EA89FB8980818F7D80831B
:1012E000DF91CF91FF90EF90DF90CF90BF90089566
:1012F0001F920F920FB60F9211242F938F939F93EB
:10130000EF93FF93E091D802F091D9028081E091B0
:10131000DE02F091DF0282FD12C090818091E10235
:101320008F5F8F732091E202821751F0E091E1020A
:10133000F0E0E853FD4F958F8093E10201C080817A
:10134000FF91EF919F918F912F910F900FBE0F9072
:101350001F9018951F920F920FB60F9211242F9382
:101360003F934F935F936F937F938F939F93AF932D
:10137000BF93EF93FF9388EC92E00E946E08FF9179
:10138000EF91BF91AF919F918F917F916F915F91FD
:101390004F913F912F910F900FBE0F901F90189576
:1013A00088EC92E00E94330821E0892B09F420E0C8
:1013B000822F08951092CB021092CA0288EE93E019
:1013C000A0E0B0E08093CC029093CD02A093CE0237
:1013D000B093CF0282E592E09093C9028093C80255
:1013E00085EC90E09093D5028093D40284EC90E059
:1013F0009093D7028093D60280EC90E09093D9022C
:101400008093D80281EC90E09093DB028093DA0223
:1014100082EC90E09093DD028093DC0286EC90E019
:101420009093DF028093DE021092E1021092E202BA
:101430001092E3021092E402089508950E94F806C3
:101440000E941D0A0E948D00C0E6D8E00E949F0005
:101450002097E1F30E946008F9CFCF92DF92EF92DC
:10146000FF920F931F93CF93DF937C016A01EB01EF
:1014700000E010E00C151D0571F06991D701ED91A8
:10148000FC910190F081E02DC7010995892B19F09D
:101490000F5F1F4FEFCFC801DF91CF911F910F91C9
:1014A000FF90EF90DF90CF9008956115710581F066
:1014B000DB010D900020E9F7AD0141505109461BB9
:1014C000570BDC01ED91FC910280F381E02D099432
:1014D00080E090E008950C94550A6EE572E00C945B
:1014E000550A0F931F93CF93DF93EC010E94550A87
:1014F0008C01CE010E946D0A800F911FDF91CF9168
:101500001F910F9108950895991B79E004C0991FC8
:10151000961708F0961B881F7A95C9F7809508954D
:10152000AA1BBB1B51E107C0AA1FBB1FA617B70709
:1015300010F0A61BB70B881F991F5A95A9F7809525
:101540009095BC01CD01089597FB072E16F40094E9
:1015500007D077FD09D00E94900A07FC05D03EF421
:10156000909581959F4F0895709561957F4F08954F
:10157000A1E21A2EAA1BBB1BFD010DC0AA1FBB1F97
:10158000EE1FFF1FA217B307E407F50720F0A21B09
:10159000B30BE40BF50B661F771F881F991F1A9476
:1015A00069F760957095809590959B01AC01BD01A0
:1015B000CF010895EE0FFF1F0590F491E02D0994DF
:0415C000F894FFCFCD
:1015C400000065038000787878787878787878787F
:1015D4000078787878787878780006020205000335
:1015E40005010406020477017E0186019001990138
:1015F400A001A901B001B401B801BC01C001C4013A
:10160400C801CC01D401DD01E301E901ED01F201DE
:10161400F701FE01080210021902220226022A0220
:101624002E02E901320236023A023E024202460228
:101634004A02202D2D20004D6F6E6461790054758F
:101644006573646179005765646E657364617900DC
:1016540054687572736461790046726964617900D3
:1016640053617475726461790053756E64617900B5
:101674004D6F6E00547565005765640054687500BD
:10168400467269005361740053756E004A616E7549
:10169400617279004665627275617279004D61729A
:1016A400636800417072696C004D6179004A756E1F
:1016B40065004A756C7900417567757374005365EC
:1016C4007074656D626572004F63746F6265720059
:1016D4004E6F76656D62657200446563656D626523
:1016E40072004A616E00466562004D61720041708D
:1016F40072004A756E004A756C0041756700536547
:1017040070004F6374004E6F760044656300000000
:101714000000B1082D0A33084C083E088F080D0A52
:10172400006E616E00696E66006F7666002E0000C2
:00000001FF
