:100000000C945E000C9486000C9486000C94860080
:100010000C9486000C9486000C9486000C94860048
:100020000C9486000C9486000C9486000C94860038
:100030000C9486000C9486000C9486000C94860028
:100040000C9495030C9486000C9486000C94860006
:100050000C9486000C9486000C9486000C94860008
:100060000C9486000C948600000000080002010039
:100070000003040700000000000000000102040863
:100080001020408001020408102001020408102002
:10009000040404040404040402020202020203032E
:1000A0000303030300000000250028002B000000CC
:1000B0000000240027002A0060016A0111241FBEED
:1000C000CFEFD8E0DEBFCDBF11E0A0E0B1E0E2ECC1
:1000D000FCE002C005900D92AA30B107D9F721E0EB
:1000E000AAE0B1E001C01D92A233B207E1F710E02F
:1000F000CAEBD0E004C02297FE010E942205C83B53
:10010000D107C9F70E9410050C9454060C94000006
:100110008AE091E00E9482018AE091E00C9406025C
:10012000CF92DF92EF92FF92CF93DF936B017C012E
:10013000C0E0D0E08AE091E00E949103C817D9079F
:1001400068F4A7019601BE018AE091E00E942203B3
:100150008AE091E00E9406022196ECCFDF91CF91D8
:10016000FF90EF90DF90CF900895809123019091C0
:10017000240189319105BCF4019690932401809368
:10018000230160912101709122016F5F7F4F709375
:1001900022016093210120E040911F010E9487030A
:1001A00040E00E94900080912301909124018931C8
:1001B0009105FCF0019690932401809323016091B6
:1001C0002101709122016F5F7F4F70932201609334
:1001D000210140911F01509120014F5F5F4F5093CB
:1001E000200140931F0120E00E94870340E00E940D
:1001F000900080912301909124018097DCF081E2AE
:1002000090E09093240180932301909322018093A6
:10021000210140911F01509120014F5F5F4F50938A
:10022000200140931F0120E061E20E94870340E02B
:100230000E94900080911F0190912001C3970CF4BF
:10024000089580912301909124018230910564F1F9
:1002500020E040911F01609121010E94870340E04E
:100260000E94900080912301909124010197909326
:100270002401809323018091210190912201019713
:10028000909322018093210180911F019091200180
:1002900001979093200180931F0168EE73E080E046
:1002A00090E00E940204CDCF089580910601811153
:1002B0000E94B50068EE73E080E090E00C940204C8
:1002C00022E530E0409107016BE070E08AE091E0C8
:1002D0000C94FA028AE091E00C946E01CF93DF93C4
:1002E000EC0188859985009711F00E94BE058E81EA
:1002F00087FD05C060E0DF91CF910C94A004DF91F1
:10030000CF910895CF93DF93EC018E8187FD07C0D5
:1003100061E00E94A00460E08E810E94D90481E027
:100320008983DF91CF910895EF92FF920F931F93EE
:10033000CF93DF93EC017B0188859985009711F0BD
:100340000E94BE059D858A85981303C083E090E0D6
:1003500002C084E090E08E9D80018F9D100D9E9DD7
:10036000100D11241D830C83C8010E942605998756
:100370008887009741F0A80160E070E00E944D0678
:10038000FB82EA8204C01D821C821B821A82DF91DA
:10039000CF911F910F91FF90EF900895FC0121E004
:1003A00095858285981320E0CB0136E09695879558
:1003B0003A95E1F7482F43704587CB0154E0969575
:1003C00087955A95E1F7382F33703287CB01969590
:1003D00087959695879583708387862F837084870A
:1003E00081E06F3F710511F008F080E08083808527
:1003F0009185892B51F091E0431390E0921729F0F9
:1004000062817381CF010C9494010895CF92DF92A1
:10041000EF92FF920F931F93CF93DF93CDB7DEB789
:1004200029970FB6F894DEBF0FBECDBF8C01DC015B
:1004300018968D919C911997892B09F49AC00E9466
:10044000DF03F801C684D784E088F1886C197D0940
:100450008E099F09623371058105910580F3F89437
:10046000848195819A838983A085B1857D01EFEF91
:10047000EE1AFE0A8C918987D8019C9152960D90B4
:10048000BC91A02DF8018489992309F42EC09C9178
:10049000982B98879C91809589238F838F818E8359
:1004A00088E08D8358856F8149853D812E818981C2
:1004B0009A81F7015C9347FD252F3A952C93262FBF
:1004C00039F0441F00C000006C93000000C0F2CF60
:1004D00038E041916C930000019761F7F801B38B0C
:1004E000A28B49873D832E8338C09C91982B988797
:1004F0009C91809589238F838F818C8388E08B8367
:1005000058856F8149853B812C8189819A81F701CA
:100510005C9347FD252F00C000C02C9300C000C095
:1005200000C000C000C06C930000262F3A9541F037
:10053000441F000000C000C000C000C000C0E8CFE1
:1005400038E0419100C06C9300C0019709F7F801B1
:10055000B38BA28B49873B832C839A8389837894BE
:100560000E94DF03D8011E966D937D938D939C931B
:10057000519729960FB6F894DEBF0FBECDBFDF911D
:10058000CF911F910F91FF90EF90DF90CF90089542
:100590001F93CF93DF93EC01162F8981882331F0CD
:1005A0008E8187FD03C060E00E94A0041E838981C4
:1005B000882341F061E0812F0E94A00460E0812F38
:1005C0000E94D904812F90E0FC01E057FF4FE49195
:1005D000F0E0EE0FFF1FEC55FF4F259134913B8B60
:1005E0002A8BFC01E458FF4F84918C8BDF91CF91D3
:1005F0001F910895EF92FF920F931F93CF93DF9374
:100600001F92CDB7DEB77C018B01FC0111821782EE
:100610001186108616861786108A118AB9014983B9
:100620000E94CE01B801C7010E9494014981642F44
:10063000C7010F90DF91CF911F910F91FF90EF9025
:100640000C94C802CF92DF92EF92FF920F931F9308
:10065000CF93DF93FC01828193816817790708F0BB
:100660004DC0CA01AA27BB27182FC32ED42EE52EB2
:10067000FF24DC2DC22F0781002361F0809FC00181
:100680001124192FC09E60011124DD2D209FC0016F
:100690001124C92FF5848285A085B185F81208C080
:1006A000CB01880F991F860F971F8A0F9B1F17C0BA
:1006B000CB01880F991F880F991F8A0F9B1F452F09
:1006C000552766277727DC01AF0DB11D002329F0E0
:1006D000409F90011124232F01C0242F2C932285A9
:1006E000DC01A20FB11D1C932385DC01A20FB11DFB
:1006F000DC932485FC01E20FF11DC083DF91CF91D3
:100700001F910F91FF90EF90DF90CF900895962F5B
:1007100050E060E070E0592B682B722BCB01BA01DE
:100720000895FC018281938108951F920F920FB664
:100730000F9211242F933F938F939F93AF93BF9367
:100740008091260190912701A0912801B091290163
:100750003091250123E0230F2D3720F40196A11DB0
:10076000B11D05C026E8230F0296A11DB11D2093DF
:1007700025018093260190932701A0932801B0932F
:10078000290180912A0190912B01A0912C01B09117
:100790002D010196A11DB11D80932A0190932B017B
:1007A000A0932C01B0932D01BF91AF919F918F9198
:1007B0003F912F910F900FBE0F901F9018953FB74C
:1007C000F89480912A0190912B01A0912C01B09175
:1007D0002D0126B5A89B05C02F3F19F00196A11D3C
:1007E000B11D3FBF6627782F892F9A2F620F711D89
:1007F000811D911D42E0660F771F881F991F4A9542
:10080000D1F708958F929F92AF92BF92CF92DF92CD
:10081000EF92FF926B017C010E94DF034B015C01B0
:10082000C114D104E104F104F1F00E941F050E94FB
:10083000DF03681979098A099B09683E73408105BD
:10084000910570F321E0C21AD108E108F10888EEA1
:10085000880E83E0981EA11CB11CC114D104E104D0
:10086000F10429F7DDCFFF90EF90DF90CF90BF909C
:10087000AF909F908F900895789484B5826084BDE6
:1008800084B5816084BD85B5826085BD85B5816094
:1008900085BDEEE6F0E0808181608083E1E8F0E0F4
:1008A0001082808182608083808181608083E0E823
:1008B000F0E0808181608083E1EBF0E08081846002
:1008C0008083E0EBF0E0808181608083EAE7F0E004
:1008D0008081846080838081826080838081816068
:1008E00080838081806880831092C1000895833066
:1008F00081F028F4813099F08230A1F0089587309A
:10090000A9F08830B9F08430D1F4809180008F7DD7
:1009100003C0809180008F7780938000089584B514
:100920008F7702C084B58F7D84BD08958091B0001B
:100930008F7703C08091B0008F7D8093B0000895C1
:10094000CF93DF9390E0FC01E458FF4F2491FC012A
:10095000E057FF4F8491882349F190E0880F991F59
:10096000FC01E255FF4FA591B4918C559F4FFC01BE
:10097000C591D4919FB7611108C0F8948C912095CE
:1009800082238C93888182230AC0623051F4F894C8
:100990008C91322F309583238C938881822B88838E
:1009A00004C0F8948C91822B8C939FBFDF91CF91E0
:1009B00008950F931F93CF93DF931F92CDB7DEB7A8
:1009C000282F30E0F901E859FF4F8491F901E458EC
:1009D000FF4F1491F901E057FF4F04910023C9F034
:1009E000882321F069830E9477046981E02FF0E079
:1009F000EE0FFF1FEC55FF4FA591B4919FB7F894F0
:100A00008C91611103C01095812301C0812B8C93BF
:100A10009FBF0F90DF91CF911F910F91089508957F
:100A20000E943C040E940F050E948800C0E0D0E0B4
:100A30000E9455012097E1F30E940000F9CF08952C
:100A4000EE0FFF1F0590F491E02D0994CF93DF93F3
:100A50008230910510F482E090E0E0913001F09155
:100A6000310120E030E0A0E0B0E0309739F1408182
:100A7000518148175907B8F04817590771F4828116
:100A80009381109729F013969C938E9312972CC004
:100A9000909331018093300127C02115310531F049
:100AA0004217530718F0A901DB0101C0EF019A01B9
:100AB000BD01DF010280F381E02DD7CF2115310583
:100AC000F9F0281B390B2430310580F48A819B8191
:100AD0006115710521F0FB019383828304C090931B
:100AE000310180933001FE01329644C0FE01E20FD5
:100AF000F31F8193919322503109398328833AC09F
:100B000020912E0130912F01232B41F420910201DD
:100B10003091030130932F0120932E012091000189
:100B2000309101012115310541F42DB73EB74091B7
:100B3000040150910501241B350BE0912E01F09129
:100B40002F01E217F307A0F42E1B3F0B28173907DC
:100B500078F0AC014E5F5F4F2417350748F04E0F19
:100B60005F1F50932F0140932E018193919302C0F8
:100B7000E0E0F0E0CF01DF91CF910895CF93DF93D4
:100B8000009709F487C0FC01329713821282C0914A
:100B90003001D0913101209781F420813181280FDB
:100BA000391F80912E0190912F018217930779F5BB
:100BB000F0932F01E0932E016DC0DE0120E030E0C4
:100BC000AE17BF0750F412964D915C9113979D019B
:100BD0004115510509F1DA01F3CFB383A2834081B6
:100BE0005181840F951F8A179B0771F48D919C91F9
:100BF0001197840F951F02969183808312968D9191
:100C00009C911397938382832115310529F4F093E6
:100C10003101E09330013EC0D9011396FC93EE936D
:100C200012974D915D91A40FB51FEA17FB0779F458
:100C300080819181840F951F0296D90111969C9312
:100C40008E938281938113969C938E931297E0E00A
:100C5000F0E08A819B81009719F0FE01EC01F9CF49
:100C6000CE01029628813981820F931F20912E0197
:100C700030912F012817390769F4309729F4109221
:100C800031011092300102C013821282D0932F01E1
:100C9000C0932E01DF91CF910895DC0101C06D93C7
:100CA00041505040E0F7089510E0CAEBD0E004C096
:100CB000FE010E9422052296CC3BD107C9F7F89489
:020CC000FFCF64
:0A0CC200000032018000010D000067
:00000001FF
